:100000000C9437000C9475010C9475010C947501D7
:100010000C9475010C9475010C9475010C94750188
:100020000C9475010C9475010C9475010C94750178
:100030000C9475010C9475010C9475010C94750168
:100040000C9475010C9475010C9475010C94750158
:100050000C9475010C9475010C9475010C94750148
:100060000C9475010C9475010100010480001124A9
:100070001FBECFEFD8E0DEBFCDBFE8E6F0E040E046
:1000800017C0B591A59135912591059107FD0CC03B
:1000900095918591EF01F92FE82F05900D92A21708
:1000A000B307D9F7FE0104C01D92A217B307E1F709
:1000B000ED36F40731F70E9461000C946A01F89460
:0200C000FFCF70
:1000C2002098289A219A229A239A249A259A299842
:1000D2002A982B982C982D98C0EBD4E0A5E0B0E09C
:1000E2006894EE24E2F8F12CECE2F1E063E070E0D7
:1000F2006894AA24A1F8B12C0F2EF8EECF2EF3E0CB
:10010200DF2EF02D48E650E121E030E0809102013F
:1001120090910301009771F429982A982B9A2D98AF
:100122002C9A5093010140930001309303012093D4
:10013200020102C0019741F58091000190910101F5
:10014200019790930101809300018FE39CE901974D
:10015200F1F700C0000018990CC080910001909145
:100162000101893E93402CF0D0920101C09200011E
:100172000BC08091000190910101892B29F4B0926A
:100182000301A092020107C0809102019091030134
:100192008230910559F42B982A9AF0930101E09349
:1001A2000001709303016093020102C00397D1F42E
:1001B2008091000190910101019790930101809338
:1001C20000018FE39CE90197F1F700C000008091E4
:1001D200000190910101892B29F4F0920301E09230
:1001E200020107C0809102019091030184309105C0
:1001F20069F42A98299A2C982D9AD0930101C093D8
:100202000001B0930301A093020103C0059709F016
:100212007DCF80910001909101010197909301019E
:10022200809300018FE39CE90197F1F700C0000081
:1002320080910001909101018C329140F1F52D984D
:100242002C9A8FEF99E618E1815090401040E1F727
:1002520000C000002C988FEF99E618E18150904081
:100262001040E1F700C000002C9A8FEF99E618E1E8
:10027200815090401040E1F700C000002C988FEFB1
:1002820099E618E1815090401040E1F700C000006B
:100292002C9A8FEF99E618E1815090401040E1F7D7
:1002A20000C000002C988FEF99E618E18150904031
:1002B2001040E1F700C000002C9A8091000190915B
:1002C2000101892B09F022CF109203011092020141
:0202D2001DCF3E
:1002D400EC010E947A010E947901CE010E947B0107
:0602E400CE010E9477012B
:0402EA000C94000070
:0402EE000E945F000B
:0202F20008956D
:0202F40008956B
:0202F600089569
:00000001FF
